{
  "_format": "hh-sol-artifact-1",
  "contractName": "A",
  "sourceName": "contracts/A.sol",
  "abi": [
    {
      "inputs": [],
      "name": "getA",
      "outputs": [
        {
          "internalType": "uint256",
          "name": "",
          "type": "uint256"
        }
      ],
      "stateMutability": "view",
      "type": "function"
    },
    {
      "inputs": [
        {
          "internalType": "uint256",
          "name": "_a",
          "type": "uint256"
        }
      ],
      "name": "setA",
      "outputs": [],
      "stateMutability": "nonpayable",
      "type": "function"
    }
  ],
  "bytecode": "0x608060405234801561001057600080fd5b50610155806100206000396000f3fe608060405234801561001057600080fd5b50600436106100365760003560e01c8063d46300fd1461003b578063ee919d5014610059575b600080fd5b610043610075565b60405161005091906100a6565b60405180910390f35b610073600480360381019061006e91906100f2565b610081565b005b60008060000154905090565b80600080018190555050565b6000819050919050565b6100a08161008d565b82525050565b60006020820190506100bb6000830184610097565b92915050565b600080fd5b6100cf8161008d565b81146100da57600080fd5b50565b6000813590506100ec816100c6565b92915050565b600060208284031215610108576101076100c1565b5b6000610116848285016100dd565b9150509291505056fea26469706673582212207d7a5bbca8247daecf49885c225f33b7c224c5777ec838da23b3eb54f0d9cde464736f6c634300080a0033",
  "linkReferences": {},
  "deployedLinkReferences": {}
}